:100000001CC100003EC100003CC100003AC100001C
:1000100038C1000036C1000034C1000032C1000008
:1000200030C100002EC100002CC100002AC1000018
:1000300028C1000026C1000024C1000022C1000028
:1000400020C100001EC100001CC100001AC1000038
:1000500018C1000016C1000014C1000012C1000048
:1000600010C100000EC100000CC100000AC1000058
:1000700008C1000006C1000004C1000002C1000068
:1000800000C10000FEC00000FCC00000FAC000007B
:10009000F8C00000F6C00000F4C00000F2C000008C
:1000A000F0C00000EEC00000ECC00000EAC000009C
:1000B000E8C00000E6C00000E4C00000E2C00000AC
:1000C000E0C00000DEC00000DCC00000DAC00000BC
:1000D000D8C00000D6C00000D4C00000D2C00000CC
:1000E000D0C00000CEC00000CCC00000CAC00000DC
:1000F000C8C00000C6C00000C4C00000C2C00000EC
:10010000C0C00000BEC00000BCC00000BAC00000FB
:10011000B8C00000B6C00000B4C00000B2C000000B
:10012000B0C00000AEC00000ACC00000AAC000001B
:10013000A8C00000A6C00000A4C00000A2C000002B
:10014000A0C000009EC000009CC000009AC000003B
:1001500098C0000096C0000094C0000092C000004B
:100160008BC300008EC000008CC000008AC000005D
:1001700088C0000086C0000084C0000082C000006B
:1001800080C000007EC000007CC000007AC000007B
:1001900078C0000076C0000074C0000072C000008B
:1001A000C0C100006EC000006CC000006AC000004A
:1001B00068C0000066C0000064C0000062C00000AB
:1001C00060C000005EC000005CC000005AC00000BB
:1001D00058C0000056C0000054C0000052C00000CB
:1001E00050C000004EC000004CC000004AC00000DB
:1001F00048C0000046C0000044C00000D7043605D7
:1002000036053605360536053605D7043605360576
:10021000360536053605780478047D047D048004AF
:100220008004830483043605360536053605360515
:100230003605360536053605750411241FBECFEF89
:10024000CDBFDFE3DEBF00E00CBF18BE19BE1ABE93
:100250001BBE10E2A0E0B0E2E6EBFDE000E00BBF69
:1002600002C007900D92AE35B107D9F71BBE20E250
:10027000AEE5B0E201C01D92A336B207E1F711D39B
:1002800098C5BECE181619069CF440E050E076E8FA
:1002900061E00BC000002150310921153105D1F773
:1002A0004F5F5F4F4817590719F0272F362FF2CFAE
:1002B0000895BF92CF92DF92EF92FF920F931F9318
:1002C000CF93DF93EC018B01D52E121613063CF46D
:1002D000FB01260F371F1192E217F307E1F7209772
:1002E00021F480E3F801808334C0F80120E030E09D
:1002F000B42ECD2CCE01642F7D2D41D590E3980FE7
:100300009A3310F097E3980F79018FEFE81AF80A03
:100310009193CE016B2D7C2D32D5EB01209711F0FE
:100320009701E8CFD901C70199230CF4019695955F
:100330008795A817B9076CF01196A00FB11FF801A7
:100340004E9150815C934193215031092817390710
:10035000BCF7C801DF91CF911F910F91FF90EF90F3
:10036000DF90CF90BF90089587E38093E00683E30A
:100370008093E5068FEF809300078093200781E04C
:100380008093400485E18093500480E890E080935E
:1003900052049093530481E28093540480E097E4E4
:1003A000809356049093570420E080E090E8A0E00A
:1003B000B0E00BB6ABBFFC0120830BBE0895E8E4B0
:1003C000F0E09081917F892B80830895E8E4F0E04C
:1003D00080818160808308958895089581E080936D
:1003E00040028FEF8093020688E0809322068CE023
:1003F0008093410280E38093420287E0809344022D
:1004000081E88093600280E2809361020895CF9337
:10041000DF931F921F92CDB7DEB7E0E4F2E0808158
:100420008460808381E880936002E3E6F2E080816B
:10043000809164029091650289839A8381E0808330
:1004400089819A810F900F90DF91CF910895BC011F
:10045000882777FD8095982FA3D320E030E040EFE8
:100460005FE32AD420E030E040EA51E401D365D3D1
:10047000CB01089580EF8093A0069FE09093B00099
:1004800021E12093B00623E02093A9069093AA06C9
:100490008093A406089540E050E061E070E0A4EA93
:1004A000B6E0E8EAF6E0CB01042E02C0880F991FFF
:1004B0000A94E2F78295807F8C9300000000000090
:1004C000808180FD0FC0CB01000000000000208172
:1004D00030E0082E02C0359527950A94E2F720FFF8
:1004E00012C002C080E090E020EF2093A406FA0141
:1004F000EE0FFF1FEE0FFF1F8E0F9F1FFC01E0503E
:10050000F04E80810895019684309105E9F64F5FA1
:100510005F4F4430510539F680EF8093A40686E49E
:1005200008951F920F920FB60F92112408B60F92E2
:1005300018BE09B60F9219BE0BB60F921BBE2F93B1
:100540003F934F935F936F937F938F939F93AF935B
:10055000BF93EF93FF9381E090E094DE9CDF8634BD
:1005600011F080936220ECEAF6E080818160808364
:10057000FF91EF91BF91AF919F918F917F916F917B
:100580005F914F913F912F910F900BBE0F9009BE3D
:100590000F9008BE0F900FBE0F901F90189585E02A
:1005A00090E070CE0895CF93C82FF9DF40E050E17E
:1005B00067E470E00BB66BBFFA01C0830BBECF914E
:1005C000089581E090E0EFDF10926120089588E2C5
:1005D00090E058DE2CE380E090E1A7E4B0E00BB6B9
:1005E000ABBFFC0120830BBE88E290E04BDE2CE326
:1005F00080E090E1A7E4B0E00BB6ABBFFC01208344
:100600000BBE88E290E03EDE8FE090E0CCDFC7DFFB
:1006100081E090E080935F209093602086E090E0FE
:10062000C2DFCFCF089580916120883238F488E20C
:100630008093612088EA90E0B6CF089510926120FF
:1006400080E890E0B0CF0895CF93C82F8A3011F49E
:10065000EADF20C0A4DF41E050E167E470E00BB6C0
:100660006BBFFA01C0830BBE809161208F5F803128
:1006700039F488E28093612088EA90E094DF0AC030
:10068000883319F08093612005C01092612080E8C2
:1006900090E089DFCF910895CF93DF93EC018881BB
:1006A000882329F02196D0DF89918111FCCFDF9139
:1006B000CF91089580916120803110F490E00895E9
:1006C00090E08897089581E090E0209161202031AA
:1006D00010F480E090E0089580915F209091602078
:1006E00021E0822780935F2090936020880F991FDC
:1006F000880F991F2FE0822756CF0895CF93DF935D
:100700008130910501F11CF4892B41F041C0823008
:10071000910509F436C0039761F13AC0D4DFEC01CA
:100720008130910549F4C6DF009749F460E070E03C
:100730008FE090E030D02CC0BDDF009749F1BE01C2
:10074000019729D025C0BFDFEC01009751F4B2DF3B
:100750008F30910551F461E070E080E090E01BD0B3
:1007600017C0A8DF8F30910599F0BE01019613D014
:100770000FC0A9DF019761F49DDF60E070E00BD04E
:1007800007C0A1DF892B21F495DF61E070E003D081
:10079000DF91CF9108950F931F93CF93DF938C0137
:1007A000672B29F48068FFDE009361202EC082DF72
:1007B0009801281B390BC9012130310549F484E126
:1007C00090E0F1DE809161208F5F809361201DC0F9
:1007D000019649F480E190E0E6DE8091612081504D
:1007E0008093612012C088E28093612088EA90E0C3
:1007F000DADE101611064CF4C0E0D0E081E090E0A3
:100800007DDF2196C017D107C9F7DF91CF911F91E6
:100810000F91089588E0809361068093650684E0D7
:10082000809362068AE08093C1078093C60788E1BF
:100830008093A40983E08093A5098093A60986E9A3
:100840008093A70980E38093A3090895E1EAF9E082
:10085000908195FFFDCF8093A0090895CF93DF93FA
:10086000EC018881882329F02196F0DF899181119C
:10087000FCCFDF91CF9108951F920F920FB60F9288
:10088000112408B60F9218BE8F938091A00980930F
:100890005E208F910F9008BE0F900FBE0F901F909B
:1008A0001895CF93DF93CDB7DEB72A97CDBFDEBFC4
:1008B0005BDD94DD8CDEDEDDADDF80E080DD86DDBE
:1008C00084E08093A2007894CE0101967C01A82E4A
:1008D000BF2C4091622050E0FA01B397EF31F1054F
:1008E00008F0C4C0E250FF4F5EC200E010E0B8C0A4
:1008F00080E190E2D1DE70DDECCF63DE6DDDE9CF2B
:10090000EBDE6ADDE6CF5DDE8AE190E2C5DE64DD26
:10091000E0CF57DE7CDD9BDD6C012AE030E04AE071
:1009200050E06A2D7B2DC5DC89818823F9F0FE011A
:10093000329620E030E0C90101964191442311F044
:100940009C01F9CF490191E0891A91081814190402
:1009500084F400E010E0F701E00FF11F808174DE05
:100960000E5F1F4F08151905B4F305C000E010E035
:1009700002C000E010E08EE267DEC701800F911F29
:100980008BDE87E390E288DE2AE030E040E150E051
:100990006A2D7B2DC6018DDC8BE390E27DDE8A2DF6
:1009A0009B2D7ADE89E250DE84EF91E06BDC809152
:1009B00062208A3209F4ADCF80916220833209F43B
:1009C000A8CF87CF09DD01301105B1F480915E20F9
:1009D0008B3109F443C080915E208F3749F480E069
:1009E00090E08CDE80E230DE80E090E087DE38C090
:1009F00080915E2029DE34C080915E208A36C1F06D
:100A000028F4883649F08936B9F024C08C3661F074
:100A100038F08F37B9F01EC080E090E06FDE20C064
:100A200083E090E06BDE1CC081E090E067DE18C0E0
:100A300082E090E063DE14C08FE390E20FDF01E01C
:100A400010E00EC080E090E059DE80E2FDDD80E045
:100A500090E054DE8EE490E201DF02C000E010E09E
:100A600080916220813409F4ADCF33CFB5DC31CF32
:100A70005058BB27AA270ED0E5C0D6D030F0DBD027
:100A800020F031F49F3F11F41EF4CBC00EF4E0953A
:100A9000E7FBC1C0E92FE7D080F3BA1762077307FD
:100AA0008407950718F071F49EF5FFC00EF4E095E9
:100AB0000B2EBA2FA02D0B01B90190010C01CA0118
:100AC000A0011124FF27591B99F0593F50F4503EC3
:100AD00068F11A16F040A22F232F342F4427585FB5
:100AE000F3CF469537952795A795F0405395C9F7CD
:100AF0007EF41F16BA0B620B730B840BBAF0915085
:100B0000A1F0FF0FBB1F661F771F881FC2F70EC023
:100B1000BA0F621F731F841F48F4879577956795F6
:100B2000B795F7959E3F08F0B3CF9395880F08F0DF
:100B30009927EE0F97958795089504D06894B11181
:100B4000B5C0089598D088F09F5790F0B92F992795
:100B5000B751A0F0D1F0660F771F881F991F1AF0C8
:100B6000BA95C9F712C0B13081F09FD0B1E00895B5
:100B70009CC0672F782F8827B85F39F0B93FCCF336
:100B8000869577956795B395D9F73EF490958095BE
:100B9000709561957F4F8F4F9F4F0895E89409C0DE
:100BA00097FB3EF490958095709561957F4F8F4FA0
:100BB0009F4F9923A9F0F92F96E9BB279395F695B6
:100BC000879577956795B795F111F8CFFAF4BB0F34
:100BD00011F460FF1BC06F5F7F4F8F4F9F4F16C098
:100BE000882311F096E911C0772321F09EE8872F22
:100BF000762F05C0662371F096E8862F70E060E0DE
:100C00002AF09A95660F771F881FDAF7880F969556
:100C1000879597F9089597F99F6780E870E060E0FD
:100C200008959FEF80EC089500240A941616170685
:100C300018060906089500240A94121613061406CD
:100C400005060895092E0394000C11F4882352F030
:100C5000BB0F40F4BF2B11F460FF04C06F5F7F4FE8
:100C60008F4F9F4F089557FD9058440F551F59F0CF
:100C70005F3F71F04795880F97FB991F61F09F3F89
:100C800079F087950895121613061406551FF2CFB2
:100C90004695F1DF08C0161617061806991FF1CF02
:100CA00086957105610508940895E894BB27662729
:100CB0007727CB0197F908950BD0C4CFB5DF28F083
:100CC000BADF18F0952309F0A6CFABCF1124EECFF1
:100CD000CADFA0F3959FD1F3950F50E0551F629F97
:100CE000F001729FBB27F00DB11D639FAA27F00D85
:100CF000B11DAA1F649F6627B00DA11D661F829FAC
:100D00002227B00DA11D621F739FB00DA11D621F90
:100D1000839FA00D611D221F749F3327A00D611DAD
:100D2000231F849F600D211D822F762F6A2F11248F
:100D30009F5750408AF0E1F088234AF0EE0FFF1FE2
:100D4000BB1F661F771F881F91505040A9F79E3F19
:100D5000510570F060CFAACF5F3FECF3983EDCF313
:100D6000869577956795B795F795E7959F5FC1F756
:100D7000FE2B880F911D9695879597F90895AA1BCC
:100D8000BB1B51E107C0AA1FBB1FA617B70710F076
:100D9000A61BB70B881F991F5A95A9F780959095A8
:100DA000BC01CD010895EE0FFF1F0590F491E02DD9
:060DB0001994F894FFCF36
:100DB6003132334134353642373839432A302344C9
:100DC6004A520A4176696C6573004D6179207468F0
:100DD6006520536368776172747A626520776974F7
:100DE6006820796F75210020562000283078004948
:100DF6004E53455254204D4F4445210A0D004E4F47
:0E0E0600524D414C204D4F4445210A0D000035
:00000001FF
