:10000000FDC000001FC100001DC100001BC1000099
:1000100019C1000017C1000015C1000013C1000084
:1000200011C100000FC100000DC100000BC1000094
:1000300009C1000007C1000005C1000003C10000A4
:1000400001C10000FFC00000FDC00000FBC00000B7
:10005000F9C00000F7C00000F5C00000F3C00000C8
:10006000F1C00000EFC00000EDC00000EBC00000D8
:10007000E9C00000E7C00000E5C00000E3C00000E8
:10008000E1C00000DFC00000DDC00000DBC00000F8
:10009000D9C00000D7C00000D5C00000D3C0000008
:1000A000D1C00000CFC00000CDC00000CBC0000018
:1000B000C9C00000C7C00000C5C00000C3C0000028
:1000C000C1C00000BFC00000BDC00000BBC0000038
:1000D000B9C00000B7C00000B5C00000B3C0000048
:1000E000B1C00000AFC00000ADC00000ABC0000058
:1000F000A9C00000A7C00000A5C00000A3C0000068
:10010000A1C000009FC000009DC000009BC0000077
:1001100099C0000097C0000095C0000093C0000087
:1001200091C000008FC000008DC000008BC0000097
:1001300089C0000087C0000085C0000083C00000A7
:1001400081C000007FC000007DC000007BC00000B7
:1001500079C0000077C0000075C0000073C00000C7
:1001600071C000006FC000006DC000006BC00000D7
:1001700069C0000067C0000065C0000063C00000E7
:1001800061C000005FC000005DC000005BC00000F7
:1001900059C0000057C0000055C0000053C0000007
:1001A00051C000004FC000004DC000004BC0000017
:1001B00049C0000047C0000045C0000043C0000027
:1001C00041C000003FC000003DC000003BC0000037
:1001D00039C0000037C0000035C0000033C0000047
:1001E00031C000002FC000002DC000002BC0000057
:1001F00029C0000027C0000025C0000011241FBE38
:10020000CFEFCDBFDFE3DEBF00E00CBF18BE19BEED
:100210001ABE1BBE10E2A0E0B0E2EAE1FCE000E0A2
:100220000BBF02C007900D92A231B107D9F71BBED8
:1002300020E2A2E1B0E201C01D92A531B207E1F7D0
:10024000CAD2E9C4DDCECF93DF9300D000D0CDB7C2
:10025000DEB78D839E8319821A8214C01B821C8292
:1002600006C000008B819C8101968B839C838B81CF
:100270009C81863821E09207A0F389819A810196BA
:1002800089839A8329813A818D819E812817390734
:100290002CF32696CDBFDEBFDF91CF910895CF938B
:1002A000DF93CDB7DEB76297CDBFDEBF8F83988770
:1002B00069877A874B875C872D873E8719821A82E8
:1002C0000DC089819A8129853A85820F931FFC018F
:1002D000108289819A81019689839A8329813A8142
:1002E0008D859E852817390764F38F81988500973F
:1002F00041F489859A8520E3FC01208389859A85CC
:100300007FC01B821C8225C02B853C858F819885F0
:10031000B9016DD4805D8D838D818A3318F08D8114
:10032000895F8D838B819C819C012F5F3F4F2B8345
:100330003C8329853A85820F931F2D81FC01208300
:100340002B853C858F819885B90151D4CB018F8352
:1003500098878F8198850097B9F68B819C818D87CE
:100360009E878B819C8101978B839C8339C08B8175
:100370009C8129853A85820F931FFC0180818E83A1
:100380008B819C8129853A85820F931F2D853E851F
:10039000A901415051092B813C81BA01621B730BA9
:1003A0009B0149855A85240F351FF9012081FC01E5
:1003B00020838D859E859C01215031098B819C81F4
:1003C000A901481B590BCA0129853A85820F931F41
:1003D0002E81FC0120838B819C8101978B839C83E0
:1003E0008D859E8599230CF40196959587959C01A2
:1003F0008B819C81821793070CF0B9CF89859A85F0
:100400006296CDBFDEBFDF91CF910895CF93DF938A
:1004100000D01F92CDB7DEB780EE96E027E3FC0157
:10042000208385EE96E023E3FC01208380E097E0C3
:100430002FEFFC01208380E297E02FEFFC01208367
:1004400080E494E021E0FC01208380E594E025E154
:10045000FC01208382E594E020E830E0FC01208369
:10046000318384E594E021E2FC01208386E594E079
:1004700020E037E4FC012083318380E090E8A0E0B5
:10048000B0E089839A83AB83BC8389819A81AB81F5
:10049000BC8120E00BB6ABBFFC0120830BBE2496D1
:1004A000CDBFDEBFDF91CF910895CF93DF93CDB75E
:1004B000DEB72897CDBFDEBF88E290E0C4DE80E0E3
:1004C00090E1A7E4B0E089839A83AB83BC83898100
:1004D0009A81AB81BC812CE30BB6ABBFFC012083BE
:1004E0000BBE88E290E0AFDE80E090E1A7E4B0E0F0
:1004F0008D839E83AF83B8878D819E81AF81B885C0
:100500002CE30BB6ABBFFC0120830BBE88E290E06E
:100510009ADE8FE090E071D0A9D081E090E08093E6
:1005200013209093142086E090E067D087D028961F
:10053000CDBFDEBFDF91CF910895CF93DF93CDB7CD
:10054000DEB72597CDBFDEBF8D838D818A3011F454
:1005500097D02FC08BD081E090E1A7E4B0E08983F1
:100560009A83AB83BC8389819A81AB81BC812D81C5
:100570000BB6ABBFFC0120830BBE809112208F5FB6
:100580008093122080911220803151F488E2809370
:100590001220809112208068882F90E02ED009C010
:1005A00080911220883329F41092122080E890E084
:1005B00024D02596CDBFDEBFDF91CF910895CF9394
:1005C000DF931F921F92CDB7DEB789839A830AC04B
:1005D00089819A819C012F5F3F4F29833A83FC01D7
:1005E0008081ABDF89819A81FC018081882381F73A
:1005F0000F900F90DF91CF910895CF93DF9300D0AC
:1006000000D0CDB7DEB78D839E8330D080E090E1FF
:10061000A7E4B0E089839A83AB83BC832D81898171
:100620009A81AB81BC810BB6ABBFFC0120830BBEB2
:100630002696CDBFDEBFDF91CF910895CF93DF9394
:10064000CDB7DEB781E090E0D8DF10921220DF91C5
:10065000CF910895CF93DF93CDB7DEB785E090E0DB
:10066000F2DD80E090E0DF91CF910895CF93DF93AA
:10067000CDB7DEB7EFDF0097E9F7DF91CF910895AF
:10068000CF93DF93CDB7DEB780911220883250F43C
:1006900088E280931220809112208068882F90E059
:1006A000ACDF05C01092122080E890E0A6DFDF9159
:1006B000CF910895CF93DF93CDB7DEB780E492E07A
:1006C00021E0FC01208382E096E02FEFFC012083F3
:1006D00082E296E028E0FC01208381E492E02CE0B5
:1006E000FC01208382E492E020E3FC01208384E487
:1006F00092E027E0FC01208380E692E021E8FC0103
:10070000208381E692E020E2FC012083DF91CF91FB
:100710000895CF93DF931F921F92CDB7DEB780E489
:1007200092E020E432E0F90120812460FC01208382
:1007300080E692E021E8FC012083000083E692E05D
:10074000FC018081882F90E081709927009709F43F
:10075000000084E692E0FC018081918189839A8384
:1007600083E692E021E0FC01208389819A810F9049
:100770000F90DF91CF910895CF93DF931F921F9237
:10078000CDB7DEB789839A8389819A81AA2797FD9D
:10079000A095BA2FBC01CD013BD1DC01CB0120E0FB
:1007A00030E040EF5FE3BC01CD01BED1DC01CB0105
:1007B00020E030E040EA51E4BC01CD0191D0DC0101
:1007C000CB01BC01CD01F1D0DC01CB010F900F902A
:1007D000DF91CF910895CF93DF93CDB7DEB76497C4
:1007E000CDBFDEBF13DE66DF60DE93DFC5DF8D8346
:1007F0009E8380E090E8A0E0B0E08F839887A9878F
:10080000BA872D818F819885A985BA850BB6ABBF34
:10081000FC0120830BBE8D819E81BE01655F7F4FF1
:100820002AE030E04AE050E03ADD19821A8219826B
:100830001A8205C089819A81019689839A839E01D3
:10084000255F3F4F89819A81820F931FFC01808130
:10085000882381F71B821C8214C08B819C819C01A0
:100860002F5F3F4F2B833C839E01255F3F4F820FBD
:10087000931FFC01808161DE8B819C8101968B83BB
:100880009C8389819A819C01225031098B819C81B2
:100890008217930714F38EE250DE8B819C819E01B8
:1008A000255F3F4F820F931F8ADE80E090E287DE54
:1008B0008D819E81BE01655F7F4F2AE030E040E17F
:1008C00050E0EDDC84E090E27ADECE010B9677DE3C
:1008D00088E090E274DE84EF91E0B5DCAFDE85CF96
:1008E0005058BB27AA270ED0E5C0D6D030F0DBD0B9
:1008F00020F031F49F3F11F41EF4CBC00EF4E095CC
:10090000E7FBC1C0E92FE7D080F3BA17620773078E
:100910008407950718F071F49EF5FFC00EF4E0957A
:100920000B2EBA2FA02D0B01B90190010C01CA01A9
:10093000A0011124FF27591B99F0593F50F4503E54
:1009400068F11A16F040A22F232F342F4427585F46
:10095000F3CF469537952795A795F0405395C9F75E
:100960007EF41F16BA0B620B730B840BBAF0915016
:10097000A1F0FF0FBB1F661F771F881FC2F70EC0B5
:10098000BA0F621F731F841F48F487957795679588
:10099000B795F7959E3F08F0B3CF9395880F08F071
:1009A0009927EE0F97958795089504D06894B11113
:1009B000B5C0089598D088F09F5790F0B92F992727
:1009C000B751A0F0D1F0660F771F881F991F1AF05A
:1009D000BA95C9F712C0B13081F09FD0B1E0089547
:1009E0009CC0672F782F8827B85F39F0B93FCCF3C8
:1009F000869577956795B395D9F73EF49095809550
:100A0000709561957F4F8F4F9F4F0895E89409C06F
:100A100097FB3EF490958095709561957F4F8F4F31
:100A20009F4F9923A9F0F92F96E9BB279395F69547
:100A3000879577956795B795F111F8CFFAF4BB0FC5
:100A400011F460FF1BC06F5F7F4F8F4F9F4F16C029
:100A5000882311F096E911C0772321F09EE8872FB3
:100A6000762F05C0662371F096E8862F70E060E06F
:100A70002AF09A95660F771F881FDAF7880F9695E8
:100A8000879597F9089597F99F6780E870E060E08F
:100A900008959FEF80EC089500240A941616170617
:100AA00018060906089500240A941216130614065F
:100AB00005060895092E0394000C11F4882352F0C2
:100AC000BB0F40F4BF2B11F460FF04C06F5F7F4F7A
:100AD0008F4F9F4F089557FD9058440F551F59F061
:100AE0005F3F71F04795880F97FB991F61F09F3F1B
:100AF00079F087950895121613061406551FF2CF44
:100B00004695F1DF08C0161617061806991FF1CF93
:100B100086957105610508940895E894BB276627BA
:100B20007727CB0197F908950BD0C4CFB5DF28F014
:100B3000BADF18F0952309F0A6CFABCF1124EECF82
:100B4000CADFA0F3959FD1F3950F50E0551F629F28
:100B5000F001729FBB27F00DB11D639FAA27F00D16
:100B6000B11DAA1F649F6627B00DA11D661F829F3D
:100B70002227B00DA11D621F739FB00DA11D621F22
:100B8000839FA00D611D221F749F3327A00D611D3F
:100B9000231F849F600D211D822F762F6A2F112421
:100BA0009F5750408AF0E1F088234AF0EE0FFF1F74
:100BB000BB1F661F771F881F91505040A9F79E3FAB
:100BC000510570F060CFAACF5F3FECF3983EDCF3A5
:100BD000869577956795B795F795E7959F5FC1F7E8
:100BE000FE2B880F911D9695879597F90895AA1B5E
:100BF000BB1B51E107C0AA1FBB1FA617B70710F008
:100C0000A61BB70B881F991F5A95A9F78095909539
:0A0C1000BC01CD010895F894FFCF58
:100C1A002056200028307800290A50617274204238
:020C2A000000C8
:00000001FF
