:100000000C9400010C9426010C9426010C942601FA
:100010000C9426010C9426010C9426010C942601C4
:100020000C9426010C9426010C9426010C942601B4
:100030000C9426010C9426010C9426010C942601A4
:100040000C9426010C9426010C9426010C94260194
:100050000C9426010C9426010C9426010C94260184
:100060000C9426010C9426010C9426010C94260174
:100070000C9426010C9426010C9426010C94260164
:100080000C9426010C9426010C9426010C94260154
:100090000C9426010C9426010C9426010C94260144
:1000A0000C9426010C9426010C9426010C94260134
:1000B0000C9426010C9426010C9426010C94260124
:1000C0000C9426010C9426010C9426010C94260114
:1000D0000C9426010C9426010C9426010C94260104
:1000E0000C9426010C9426010C9426010C942601F4
:1000F0000C9426010C9426010C9426010C942601E4
:100100000C9426010C9426010C9426010C942601D3
:100110000C9426010C9426010C9426010C942601C3
:100120000C9426010C9426010C9426010C942601B3
:100130000C9426010C9426010C9426010C942601A3
:100140000C9426010C9426010C9426010C94260193
:100150000C9426010C9426010C9426010C94260183
:100160000C9426010C9426010C9426010C94260173
:100170000C9426010C9426010C9426010C94260163
:100180000C9426010C9426010C9426010C94260153
:100190000C9426010C9426010C9426010C94260143
:1001A0000C9426010C9426010C9426010C94260133
:1001B0000C9426010C9426010C9426010C94260123
:1001C0000C9426010C9426010C9426010C94260113
:1001D0000C9426010C9426010C9426010C94260103
:1001E0000C9426010C9426010C9426010C942601F3
:1001F0000C9426010C9426010C9426010C942601E3
:1002000011241FBECFEFCDBFDFE3DEBF00E00CBF88
:1002100018BE19BE1ABE1BBE10E2A0E0B0E2EAE4AE
:10022000FAE000E00BBF02C007900D92A231B107C7
:10023000D9F71BBE10E2A2E1B0E201C01D92A531C8
:10024000B107E1F70E94FC040C9423050C94000014
:10025000CF93DF9300D000D0CDB7DEB78D839E83E0
:1002600019821A8214C01B821C8206C000008B8176
:100270009C8101968B839C838B819C81863821E0B5
:100280009207A0F389819A81019689839A832981B3
:100290003A818D819E81281739072CF32696CDBF90
:1002A000DEBFDF91CF910895CF93DF93CDB7DEB757
:1002B0006297CDBFDEBF8F83988769877A874B8728
:1002C0005C872D873E8719821A820DC089819A81A9
:1002D00029853A85820F931FFC01108289819A81BA
:1002E000019689839A8329813A818D859E85281775
:1002F000390764F38F819885009741F489859A8541
:1003000020E3FC01208389859A8584C01B821C829E
:1003100028C02B853C858F819885B9010E940F05E7
:10032000805D8D838D818A331CF08D81895F8D8303
:100330008B819C819C012F5F3F4F2B833C839C01D1
:1003400089859A85820F931F2D81FC0120832B853F
:100350003C858F819885B9010E940F05CB018F8361
:1003600098878F8198850097A1F68B819C818D87D6
:100370009E878B819C8101978B839C833BC08B8163
:100380009C8129853A85820F931FFC0180818E8391
:100390008B819C8129853A85820F931F2D853E850F
:1003A000A901415051092B813C81BA01621B730B99
:1003B0009B01A90129853A85240F351FF901208168
:1003C000FC0120838D859E859C01215031098B8104
:1003D0009C81A901481B590BCA019C0189859A85FA
:1003E000820F931F2E81FC0120838B819C810197BA
:1003F0008B839C838D859E8599230CF4019695951E
:1004000087959C018B819C81821793070CF0B7CF55
:1004100089859A856296CDBFDEBFDF91CF91089521
:10042000CF93DF9300D01F92CDB7DEB780EE96E07A
:1004300027E3FC01208385EE96E023E3FC01208383
:1004400080E097E02FEFFC01208380E297E02FEF20
:10045000FC01208380E494E021E0FC01208380E51E
:1004600094E025E1FC01208382E594E020E830E07F
:10047000FC012083318384E594E021E2FC012083A8
:1004800086E594E020E037E4FC012083318380E0BE
:1004900090E8A0E0B0E089839A83AB83BC83898134
:1004A0009A81AB81BC8120E00BB6ABBFFC012083FD
:1004B0000BBE2496CDBFDEBFDF91CF910895CF93C1
:1004C000DF931F92CDB7DEB7898382EA90E029815E
:1004D000FC0120830F90DF91CF910895CF93DF939C
:1004E000CDB7DEB77894DF91CF910895CF93DF93A6
:1004F000CDB7DEB7F894DF91CF910895CF93DF9316
:100500001F92CDB7DEB7898388E490E028E430E01D
:10051000F9012081322F317F2981232BFC01208397
:100520000F90DF91CF910895CF93DF93CDB7DEB7D2
:1005300088E490E028E430E0F90120812160FC01AA
:100540002083DF91CF910895CF93DF93CDB7DEB7AE
:100550008895DF91CF910895CF93DF93CDB7DEB724
:1005600088E490E028E430E0F90120812E7FFC014E
:100570002083DF91CF910895CF93DF93CDB7DEB77E
:100580002897CDBFDEBF88E290E00E94280180E07E
:1005900090E1A7E4B0E089839A83AB83BC8389812F
:1005A0009A81AB81BC812CE30BB6ABBFFC012083ED
:1005B0000BBE88E290E00E94280180E090E1A7E471
:1005C000B0E08D839E83AF83B8878D819E81AF819C
:1005D000B8852CE30BB6ABBFFC0120830BBE88E2D1
:1005E00090E00E9428018FE090E00E9470030E943A
:1005F000AC0381E090E0809313209093142086E078
:1006000090E00E9470030E9492032896CDBFDEBF47
:10061000DF91CF910895CF93DF93CDB7DEB72597C4
:10062000CDBFDEBF8D838D818A3019F40E94C20355
:1006300032C00E94AC0381E090E1A7E4B0E089837E
:100640009A83AB83BC832D8189819A81AB81BC81E4
:100650000BB6ABBFFC0120830BBE809112208F5FD5
:100660008093122080911220803159F488E2809387
:100670001220809112208068882F90E00E947003E1
:100680000AC080911220883331F41092122080E841
:1006900090E00E9470032596CDBFDEBFDF91CF9121
:1006A0000895CF93DF931F921F92CDB7DEB7898352
:1006B0009A830BC089819A819C012F5F3F4F2983C8
:1006C0003A83FC0180810E940B0389819A81FC019D
:1006D0008081882379F70F900F90DF91CF91089553
:1006E000CF93DF9300D000D0CDB7DEB78D839E834C
:1006F0000E94AC0380E090E1A7E4B0E089839A8394
:10070000AB83BC832D8189819A81AB81BC810BB67F
:10071000ABBFFC0120830BBE2696CDBFDEBFDF91B1
:10072000CF910895CF93DF93CDB7DEB781E090E00E
:100730000E94700310921220DF91CF910895CF9301
:10074000DF93CDB7DEB785E090E00E94280180E01E
:1007500090E0DF91CF910895CF93DF93CDB7DEB7CF
:100760000E949F030097E1F7DF91CF910895CF9307
:10077000DF93CDB7DEB782E090E00E947003DF9197
:10078000CF910895CF93DF93CDB7DEB7809112203C
:10079000883258F488E28093122080911220806879
:1007A000882F90E00E94700306C01092122080E80B
:1007B00090E00E947003DF91CF910895CF93DF9373
:1007C000CDB7DEB780911220803128F480911220BD
:1007D000882F90E005C080911220882F90E08897A4
:1007E000DF91CF910895CF93DF93CDB7DEB780919E
:1007F0001220803118F480E090E002C081E090E0A7
:10080000DF91CF910895CF93DF9300D000D0CDB783
:10081000DEB78B839C836D837E838D819E81009761
:1008200049F48B819C8180680E9470038B81809346
:10083000122043C00E94DE039C018B819C81821B9D
:10084000930B8130910551F484E190E00E94700394
:10085000809112208F5F809312202FC00E94DE03B0
:100860009C018B819C81821B930B8F3F2FEF920702
:1008700051F480E190E00E94700380911220815039
:10088000809312201AC088E28093122088EA90E0B8
:100890000E94700319821A8209C081E090E00E94D0
:1008A000800489819A81019689839A8329813A817A
:1008B0008B819C812817390784F32696CDBFDEBF34
:1008C000DF91CF910895CF93DF93CDB7DEB78091BD
:1008D00013209091142021E082278093132090937D
:1008E00014208091132090911420880F991F880F55
:1008F000991F2FE082270E947003DF91CF91089506
:100900000F931F93CF93DF931F921F92CDB7DEB744
:1009100089839A8389819A818130910571F182302E
:1009200091051CF4009751F060C08230910509F4E4
:1009300051C08330910509F440C057C00E94F303B1
:100940008130910559F40E94DE03009739F460E08C
:1009500070E08FE090E00E9403040EC00E94DE036E
:10096000009751F00E94F3038C010E94DE0301976F
:10097000B8010E94030439C038C00E94F3030097F5
:1009800061F40E94DE038F30910539F461E070E07C
:1009900080E090E00E9403040FC00E94DE038F30CD
:1009A000910551F00E94F3038C010E94DE03019631
:1009B000B8010E94030419C018C00E94F3038130DB
:1009C000910539F40E94DE0360E070E00E940304A8
:1009D0000CC00BC00E94F303009731F40E94DE03A9
:1009E00061E070E00E94030400000F900F90DF911F
:1009F000CF911F910F910895CF93DF93CDB7DEB7BD
:100A00000E9410020E94BC020E94920380E090E2C9
:100A10000E94510388EE93E00E942801F5CFAA1BA3
:100A2000BB1B51E107C0AA1FBB1FA617B70710F0D9
:100A3000A61BB70B881F991F5A95A9F7809590950B
:0A0A4000BC01CD010895F894FFCF2A
:100A4A004A65616E2D52616C70680A506172742039
:020A5A00410059
:00000001FF
